:020000040000FA
:060C00004EEF0AF0003780
:080C080049EF0BF0010E04019D
:100C1000A06F0401A16F120084EF0BF0D9CFE5FFA4
:100C2000E1CFD9FF00C0E5FF01C0E5FF02C0E5FF4D
:100C300003C0E5FF04C0E5FF05C0E5FF06C0E5FF12
:100C400007C0E5FF020EDBCF00F0030EDBCF01F0A3
:100C5000040EDBCF02F0050EDBCF03F0060EDBCF78
:100C600004F0070EDBCF05F0080EDBCF06F0090E0F
:100C7000DBCF07F000500401846F0150856F0250F4
:100C8000866F0350876F04500401886F0550896F89
:100C900006508A6F07508B6F0401845104018A0348
:100CA000F4CF01F0F3CF00F0005004018E6F01503B
:100CB0008F6F0401845104018803F4CF01F0F3CF56
:100CC00000F0005004018C6F01508D6F04018751BA
:100CD00004018803F3CF00F004018F510026005077
:100CE0008F6F0401865104018903F3CF00F00401E2
:100CF0008F51002600508F6F040186510401880334
:100D0000F4CF01F0F3CF00F004018E5100268F5193
:100D1000012200508E6F01508F6F04018551040134
:100D20008903F4CF01F0F3CF00F004018E510026C7
:100D30008F51012200508E6F01508F6F0401855139
:100D400004018A03F3CF00F000500401936F040103
:100D5000855104018803F4CF01F0F3CF00F0005077
:100D60000401916F0150926F0401845104018B03BF
:100D7000F3CF00F000500401976F04018451040187
:100D80008903F4CF01F0F3CF00F000500401956F18
:100D90000150966F0401906B0401946B0401905113
:100DA00004018C25006E0401915104018D21016E16
:100DB0000401925104018E21026E04019351040139
:100DC0008F21036E00508C6F01508D6F02508E6F1B
:100DD00003508F6F0401945104018C25006E0401AF
:100DE000955104018D21016E0401965104018E215B
:100DF000026E0401975104018F21036E03C0E9FFC5
:100E000002C0F4FF01C0F3FF0050E4CF07F0E4CFCD
:100E100006F0E4CF05F0E4CF04F0E4CF03F0E4CF34
:100E200002F0E4CF01F0E4CF00F0E4CFD9FF1200EC
:100E300000C0E5FF01C0E5FF02C0E5FF03C0E5FF1C
:100E400004C0E5FF05C0E5FFD350030B006EFA6A4E
:100E5000FB6A0034FA36E834FA36FC0B6C0FE56EA8
:100E60000E0EFA22000EFB22E450F96E3EEF07F060
:100E7000CFEF07F0D5EF07F0D5EF07F0E56A300EBA
:100E8000E56E000EE56AE56AF6EC09F0006E040E08
:100E9000E126180E0016016AD89001320032D8906F
:100EA00001320032D89001320032EA0E0024016E85
:100EB000026A170E0222036A000E032201C0F6FF27
:100EC00002C0F7FF03C0F8FF0900F5CF01F0E56AA3
:100ED000300EE56EE56A010EE56EF6EC09F0026E85
:100EE000040EE1260F0E0216E60E0024036E046ABD
:100EF000170E0422056A000E052203C0F6FF04C087
:100F0000F7FF05C0F8FF0900F5CF00F0D8900232D6
:100F1000025006E00250020A03E00250060A1FE1F6
:100F2000E56AE56AE56A0150E56EE56A7A0EE56E06
:100F3000120EE56E000EE56A11EC08F0016EF3CFBB
:100F400002F0F4CF03F0E9CF04F0080EE12604C06C
:100F5000E9FF03C0F4FF02C0F3FF015055D0E56A7A
:100F6000E56AE56A0050E56E050EE56EB80EE56EC1
:100F7000D80EE56E000EE56AE0EC08F0006EF3CFE7
:100F800001F0F4CF02F0E9CF03F0080EE12603C030
:100F9000E9FF02C0F4FF01C0F3FF005035D0E96A59
:100FA000F46A800EF36EE86A2FD0D350E838070B4E
:100FB000E56AE56EE56A040EE56EF9EC0AF0006E8E
:100FC000F3CF01F0040EE126026AEE0E0026170EA2
:100FD0000122000E022200C0F6FF01C0F7FF02C08E
:100FE000F8FF0900F5CF00F00900F5CF01F0090086
:100FF000F5CF02F00900F5CF03F003C0E9FF02C00E
:10100000F4FF01C0F3FF0050E4CF05F0E4CF04F09B
:10101000E4CF03F0E4CF02F0E4CF01F0E4CF00F03E
:101020001200D9CFE5FFE1CFD9FF00C0E5FF01C035
:10103000E5FF02C0E5FF03C0E5FF04C0E5FF05C012
:10104000E5FF06C0E5FF07C0E5FF08C0E5FF09C0F2
:10105000E5FF0AC0E5FF0BC0E5FF0CC0E5FF0DC0D2
:10106000E5FF020EDBCF00F0030EDBCF01F0040E34
:10107000DBCF02F0050EDBCF03F0060EDBCF04F072
:10108000070EDBCF05F0080EDBCF06F0090EDBCF35
:1010900007F0D88003AED890086A083608500FE0F1
:1010A000031C0C6E021C0B6E011C0A6E001C096EE8
:1010B000092A0DE10A2A0BE10B4A0C2A08D000C0CC
:1010C00009F001C00AF002C00BF003C00CF0D88098
:1010D00007AED890006A003600500FE0071C0D6E76
:1010E000061C036E051C026E041C016E012A0DE134
:1010F000022A0BE1034A0D2A08D004C001F005C002
:1011000002F006C003F007C00DF00D50E56E03506D
:10111000E56E0250E56E0150E56E0C50E56E0B5029
:10112000E56E0A50E56E0950E56EE0EC08F0016EE0
:10113000F3CF02F0F4CF03F0E9CF04F0080EE1267C
:101140000050081A085016E0041C076E031C066EB7
:10115000021C056E011C006E002A04E1052A02E152
:10116000064A072A07C0E9FF06C0F4FF05C0F3FFDF
:10117000005007D004C0E9FF03C0F4FF02C0F3FF32
:101180000150E4CF0DF0E4CF0CF0E4CF0BF0E4CF4E
:101190000AF0E4CF09F0E4CF08F0E4CF07F0E4CFA1
:1011A00006F0E4CF05F0E4CF04F0E4CF03F0E4CFA1
:1011B00002F0E4CF01F0E4CF00F0E4CFD9FF120059
:1011C000D9CFE5FFE1CFD9FF00C0E5FF01C0E5FFC2
:1011D00002C0E5FF03C0E5FF04C0E5FF05C0E5FF71
:1011E00006C0E5FF07C0E5FF08C0E5FF09C0E5FF51
:1011F0000AC0E5FF0BC0E5FF0CC0E5FF0DC0E5FF31
:10120000020EDBCF00F0030EDBCF01F0040EDBCFCC
:1012100002F0050EDBCF03F0060EDBCF04F0070E65
:10122000DBCF05F0080EDBCF06F0090EDBCF07F0B1
:10123000086A096A0A6A0B6A200E0C6E0350800B5A
:10124000E8440D6E00500026013602360336085081
:10125000082609360A360B360D50D8A408800750E8
:101260000B5C08E106500A5C05E10550095C02E1EF
:101270000450085C09E30450085E0550095A065002
:101280000A5A07500B5A00800C040D6E0DC00CF06A
:101290000D50D4E103C0E9FF02C0F4FF01C0F3FF29
:1012A0000050E4CF0DF0E4CF0CF0E4CF0BF0E4CF2E
:1012B0000AF0E4CF09F0E4CF08F0E4CF07F0E4CF80
:1012C00006F0E4CF05F0E4CF04F0E4CF03F0E4CF80
:1012D00002F0E4CF01F0E4CF00F0E4CFD9FF120038
:1012E000D9CFE5FFE1CFD9FF00C0E5FF01C0E5FFA1
:1012F00002C0E5FF03C0E5FF04C0E5FF05C0E5FF50
:1013000006C0E5FF07C0E5FF020EDBCF00F0030ECD
:10131000DBCF01F0040EDBCF02F0050EDBCF03F0D4
:1013200018EC07F0046EF3CF05F0F4CF06F0E9CF28
:1013300007F00350E56E0250E56E0150E56E005077
:10134000E56EE56AE56AE56A040EE56E0EEC06F008
:10135000006EF3CF01F0F4CF02F0E9CF03F0080EF6
:10136000E1260350E56E0250E56E0150E56E005037
:10137000E56E0750E56E0650E56E0550E56E0450CB
:10138000E56EE0EC08F0006EF3CF01F0080EE12608
:10139000FF0E002601220150046E948EAC84B886A4
:1013A00004C0B0FF00C0AFFF900EAB6EB88CAC8A2B
:1013B0009E9A9D8A9F8A010E0401A06F0401A16F6D
:1013C000F28EF28CF28CE4CF07F0E4CF06F0E4CF9B
:1013D00005F0E4CF04F0E4CF03F0E4CF02F0E4CF73
:1013E00001F0E4CF00F0E4CFD9FF1200D9CFE5FF40
:1013F000E1CFD9FF00C0E5FF01C0E5FF02C0E5FF76
:1014000003C0E5FF04C0E5FF05C0E5FF06C0E5FF3A
:1014100007C0E5FF020EDBCF00F0030EDBCF01F0CB
:10142000040EDBCF02F0050EDBCF03F00250046E9A
:101430000350056E066A076A0450F86E0150046E88
:101440000250056E0350066E076A0450F76E005096
:10145000F66E0900F5CF00F00900F5CF01F0026A41
:101460000150046E036A056A0050032605500422E9
:1014700004C0F3FF0350E4CF07F0E4CF06F0E4CF5D
:1014800005F0E4CF04F0E4CF03F0E4CF02F0E4CFC2
:1014900001F0E4CF00F0E4CFD9FF120017EEFFF027
:1014A00027EEFFF0F86AA68EA69CBF0EE96E0E0E20
:1014B000EA6E0068ED6A0050FDE1E20EF66E190E6C
:1014C000F76E000EF86E0900F5CF05F00900F5CFB4
:1014D00006F034D00900F5CF00F00900F5CF01F097
:1014E0000900F5CF02F009000900F5CFE9FF090076
:1014F000F5CFEAFF090009000900F5CF03F0090064
:10150000F5CF04F009000900F6CF07F0F7CF08F097
:10151000F8CF09F000C0F6FF01C0F7FF02C0F8FFE6
:1015200003D00900F5CFEEFF0306FBE20406F9E263
:1015300007C0F6FF08C0F7FF09C0F8FF0506CAE2BA
:101540000606C8E27CEC0CF0FFD7D9CFE5FFE1CF6F
:10155000D9FF00C0E5FF01C0E5FF02C0E5FF03C001
:10156000E5FF04C0E5FF05C0E5FF020EDBCF00F09C
:10157000030EDBCF01F051EC0CF0026EF3CF03F061
:10158000F4CF04F0E9CF05F0E56A010EE56E860EB2
:10159000E56EA00EE56E0550E56E0450E56E035055
:1015A000E56E0250E56EE0EC08F0026E080EE126F2
:1015B00000C004F001C005F0FF0E00260122045017
:1015C000051008E00250046EFD0E0426045007ECDE
:1015D0000CF0EED7E4CF05F0E4CF04F0E4CF03F055
:1015E000E4CF02F0E4CF01F0E4CF00F0E4CFD9FF84
:1015F0001200D9CFE5FFE1CFD9FF00C0E5FF01C060
:10160000E5FF02C0E5FF03C0E5FF020EDBCF00F0FF
:10161000030EDBCF01F0040EDBCF02F0050EDBCFB3
:1016200003F0005004019A6F01509B6F02500401B7
:101630009C6F03509D6F04019A5104019C03F4CFE9
:1016400001F0F3CF00F0005004019E6F01509F6F36
:1016500004019A5104019D03F3CF00F004019B5152
:1016600004019C03F3CF01F00150002604019F51B7
:10167000002600509F6F9FC4F3FF9E51E4CF03F0FC
:10168000E4CF02F0E4CF01F0E4CF00F0E4CFD9FFE3
:101690001200D8CFE5FFE0CFE5FFE56EF3CFE5FF21
:1016A000F4CFE5FFE9CFE5FFEACFE5FFFACFE5FFAD
:1016B000FBCFE5FFD9CFE5FFE1CFD9FFF6CFE5FFBF
:1016C000F7CFE5FFF8CFE5FFF5CFE5FFBDEC0BF079
:1016D000E4CFF5FFE4CFF8FFE4CFF7FFE4CFF6FF68
:1016E000E4CFD9FFE4CFFBFFE4CFFAFFE4CFEAFF7A
:1016F000E4CFE9FFE4CFF4FFE4CFF3FFE450E4CF1D
:10170000E0FFE4CFD8FF1000D8CFE5FFE0CFE5FF42
:10171000E56EF3CFE5FFF4CFE5FFE9CFE5FFEACFD4
:10172000E5FFFACFE5FFFBCFE5FFD9CFE5FFE1CF3E
:10173000D9FFF6CFE5FFF7CFE5FFF8CFE5FFF5CF0F
:10174000E5FFE4CFF5FFE4CFF8FFE4CFF7FFE4CF08
:10175000F6FFE4CFD9FFE4CFFBFFE4CFFAFFE4CFFD
:10176000EAFFE4CFE9FFE4CFF4FFE4CFF3FFE45076
:10177000E4CFE0FFE4CFD8FF100000C0E5FF01C0D8
:10178000E5FF02C0E5FF9EAA27D09E9AAECF00F0EB
:101790000401A0517F0A04E00401A029016E02D0D7
:1017A000010E016E0401A15101180FE0A0C401F067
:1017B0000401A02B026A000E0126040E022201C0C1
:1017C000E9FF02C0EAFF00C0EFFF0401A051800A58
:1017D00003E1010E0401A06FE4CF02F0E4CF01F0B9
:1017E000E4CF00F012000203040601020304127A9F
:1017F000000048E8010090D0030020A1070040420B
:101800000F0080841E0000093D0000127A00E806E7
:10181000E56E090E1AEC0CF0E4500BE000D0E56E1A
:10182000090E1AEC0CF000D0E450000000D0E82EB5
:10183000F6D71200E8060000E85007E000D000D01C
:1018400000D000D00000E82EFAD7120000C0E5FF5B
:1018500001C0E5FF02C0E5FF006AA6EC0CF0016ED6
:10186000015017E09D9AA1C401F00401A12B026A66
:10187000000E0126040E022201C0E9FF02C0EAFFA9
:10188000EFCF00F0A151800A03E1010E0401A16F26
:101890009D8A0050E4CF02F0E4CF01F0E4CF00F0E5
:1018A000120000C0E5FF01C0E5FF02C0E5FF03C074
:1018B000E5FF18EC07F0006EF3CF01F0F4CF02F073
:1018C000E9CF03F0D8900332023201320032D890CF
:1018D000033202320132003203C0E9FF02C0F4FFDA
:1018E00001C0F3FF0050E4CF03F0E4CF02F0E4CFF7
:1018F00001F0E4CF00F01200D0B202D0930ED0126B
:10190000D350030B800F7E0F02E3D3A4FED791ECDC
:101910000CF0F8EC0CF0DBEC0CF0E8EC0CF0FDD784
:101920001200896A8A6A400E8B6E8C6A8D6A926A8E
:10193000936A949094929494949C949E956A966AD7
:10194000806A816A826A836A846A120000C0E5FF45
:10195000006A0401A0510401A11901E1002A00500C
:10196000D880E866D890006A00360050E4CF00F0D6
:101970001200D9CFE5FFE1CFD9FF00C0E5FF020E8D
:10198000DBCF00F0ACA2FED700C0ADFFE4CF00F08B
:10199000E4CFD9FF120000C0E5FFA6EC0CF0006E0A
:1019A0000050FBE026EC0CF0006E06EC06F0005058
:1019B000E4CF00F01200E56AE56A250EE56E800EC0
:1019C000E56E70EC09F0040EE126A6EC0CF01200B6
:1019D000CBEC0CF00401996FE56EB9EC0CF0E6521B
:1019E00012000100040C0000980400000200000036
:0A19F0000F0EC16E070EB46E120058
:00000001FF
